:400000000080002011000000150400001504000010B500F021FAC04670B512222F4B1A6000F0B4FB2E4801F0F3FB012000F0CEFB302000F0C5FA2B4A2B4B1A602B4C80256C
:40004000ED0525602A4A116802230B431360294A294B1A600022294B1A60294A136808218B431360FA20C00000F05CFB254800F09DFAB8225201244B1A60244B244A1A60EB
:40008000FE22120223490A602349196023490A60234A1A6088218901224A1160224A1A6082221206214B1A608022D202204B1A604222204B1A60023A1F4B1A6001321F4B9B
:4000C0001A6002321E4B1A601E49082000F036FA082000F013FA256070BDC04630001040001BB7000600008004010B400C020B4078002E402D3E00007C002E4064F02E4065
:400100006CF02E40DC050000080301400000014042FF00800003014040FF00800403014041FF00800C03014043FF008008010B4000010B4018010140140101401001014007
:4001400004010140E508000010B572B600222E4B1A6000240FE02D486200131959000B00411889881A5AC31858880004104300F01DF90134E4B2012CEDD9244801000C3172
:40018000283000F0F9F88022D202214B1A60214A214B1A6099231B04204A1360204A1360204A136020490B783C22934314221343DBB20B701D4A117816230B43DBB21370AC
:4001C00020231B4A13601B491B4A11601B4A136076211B4A1160C02252031A490A603620194908602A301949086019490A60194A13601F3B184A1360184A1360FFF70CFF76
:4002000000F0EAF810BDC0466CF02E401C5D000014000B40000099EE0000024000500F4020500F4030500F4001700F4000700F40000004400010DB0008000440180004402B
:40024000000204400802044018020440000304400803044018030440000404401804044010B5064C2378002B07D1054B002B02D0044800E000BF0123237010BDB0010020AD
:40028000000000000C5D0000084B10B5002B03D00749084800E000BF07480368002B00D110BD064B002BFBD09847F9E700000000B40100200C5D0000C000002000000000D9
:4002C00030B587B062B600F085FC00F041FF00F099FF00F097FE00F0F1FB00F0FFFB022000F006FC002000F017FC040001F07EFD1D4B18602100002000F024FC01F076FD1A
:4003000001F0BCFD02000B00184901A802F0D2FA01A800F0D9FC164800F0D6FC00F03EFD0028DAD101F0A4F80400124A904216D0854214D0312807D8002001F04FFA0120AF
:4003400001F058FA25000AE0322807D9002001F051FA012001F042FA250000E0050001F075F800F04FFEB8E7CC010020105D0000145D0000FFFF0000F0B50025002711E058
:40038000BB00C658F3B2FF22964308E06A008A181478A419527822700135013BDBB2002BF4D10137022FEBD9F0BDC04610B50A00002101F001FE10BD064B1B68002803D0E1
:4003C00080221206134301E05B005B08014A13607047C04680033A4010B50323084A1360084A136080221206074B1A602022074B1A600022064B1A600120FFF7DDFF10BD20
:40040000300030403000314000003A4000033A40000E3F4010B501F0A3FD03680C2B00D1FEE7FEE710B50300094A1068C318094A9A1A802189008A4202DC054A136005E074
:4004400001F08EFD0C2303600120404210BDC046C4000020B002002070B50F4E0F4D13E029686B68AC68002202E001C901C30432A242FAD1E868002202E0002102C3043212
:400480008242FAD11035013E002EE9D101F06EFDFFF716FFFEE7C046010000006860000010B50E4A136801218B43136000230AE0032B03D89A000A49505800E009489900B6
:4004C000094A885001332F2BF2D9FFF73DFE034A116801230B43136010BDC04600001040000000001504000000000020024B1B68012018407047C0460C002E401F23184026
:400500001E3B8340014A13607047C04600E100E01F2318401E3B8340014A13607047C04680E100E01F2318401E3B8340014A13607047C04680E200E001BE704770B50400DF
:400540000D001F2802D90020FFF7F6FF1034A40080239B059C4664442068256070BDC04670B504000E00032902D90020FFF7E4FF1F2C02D90020FFF7DFFF03252540ED0081
:40058000063501F04EF9A408A400074B9C46644421680323AB4099430B003100A9401943216001F042F970BD00E400E010B5034B1B7B584301F02CF910BDC046C8000020F2
:4005C000F0B557464E46C0B483B0040001F029F90190E71E2D2F74D83F4B1B78DBB29C4208D83E4B1B78DBB29A463D4B1B78DBB2994631E03B4B1B78DBB29C4208D83A4BB7
:400600001B78DBB29A46394B1B78DBB2994623E0374B1B78DBB29C4208D8364B1B78DBB29A46354B1B78DBB2994615E0334B1B78DBB29C4208D8324B1B78DBB29A46314B8A
:400640001B78DBB2994607E02F4B1B78DBB29A462E4B1B78DBB299462D4BDE5D2F2E09D92A2C07D919222B4B1A60052001F0D0F8192503E0274B1D683F231D40B54206D9C4
:40068000234BDA5D234B1A60052001F0C1F81F4B9C4664442378DBB21F4A13601F4B52461A601F4B4A461A600520FFF77FFFB5420AD2174BDA5D174B1A60052001F0A8F85F
:4006C00002E00020FFF738FF019801F0AEF803B00CBC91469A46F0BD40F3FF0F41F3FF0F42F3FF0F43F3FF0F44F3FF0F45F3FF0F46F3FF0F47F3FF0F48F3FF0F49F3FF0F05
:400700004AF3FF0F4BF3FF0F4CF3FF0F4DF3FF0F505D00002CFF0B4028FF0B401CFF0B4020FF0B4010B504000F4A116801230B4313600E4A0E4B1A600E4A136880210902F8
:400740000B431360002809D100200CE00120FFF72DFFFFF7CBFE002804D1013C002CF5D1102000E0002010BD60F02E400220000078002E4010002E40034B1868C0231B026D
:40078000184000D00120704700010B4010B50D4B1A6801218A431A601A68022082431A60094A10683024A043203C204310601068093CA043014311601A68802109060A43FD
:4007C0001A6010BD00F02E4000FF2E4070B51D4B1B6801241C40002802D0012816D02BE0184B19680122914319601968022081431960154B19682E308143203801431960F6
:400800001968093881430A431A6018E00D4B1A6802218A431A600C4A10680725A84301431160116830208143103801431160196801220A431A6002E00020FFF77DFE20000D
:4008400070BDC04600F02E4000FF2E4010B500F0E8FF044A1368C02109020B43136000F0E4FF10BD00010B4010B500F0DAFF08490A68084B1A408024E40122430A600A68B4
:4008800013408022120213430B6000F0CEFF10BD00010B40FF3FFFFF70B5050000F0C1FF0400FFF769FF002803D0FFF7DDFF012100E0002108482840084A1568084B2B40EB
:4008C000184310601368012901D1FFF7BFFF200000F0ABFF70BDC0460404040010020B40FBFBFBFF10B5244B1B685B0715D5234B5B685B070ED5224B596A042001401F4C43
:4009000062688A4362605A6A82435A629B69002B00D098470420FFF7BFFF174B1B685B0518D5164B5B685B0510D5154B596A8022D2001140114842688A434260596A114A50
:400940000A405A62DB69002B00D098478020C000FFF7A2FF084B1B685B030CD5074B5B685B0304D5064B1B6A002B00D098478020C002FFF791FF10BD10020B40DC0000203D
:40098000D0010020FFFBFFFF10B503210F20FFF7E7FD26490F20FFF7D1FD0122244B1A60244B1B68002B01DA234900E02349244A13680B431360234A234B1A60234A244B63
:4009C0001A600023234A1360234A24490A6024490A6024490A688020400202430A60224A1360224A13600122214B1A60214A1168214B0B40802189050B43136002221F4B0F
:400A00001A6000230EE09A001D495118802080000860580000241B494452C22040001A4950500133002BEED010BDC046A10B000020003A4080033A407002105370020053D2
:400A400000003A408C00008004003A400000FF0718003A401C003A400200020010003A4014003A4000033A4028023A4038023A4018023A4030003A40FEFFFFDF040F3A40AD
:400A800080003A40380200203402002010B5094B1B68002B0CDB084B1B68002BFBDB054A1368802109060B4313600A20FFF77EFD10BDC04600003A4008023A4010B5064B4A
:400AC0001B78002B04D1FFF75FFF0122024B1A70FFF7DCFF10BDC046F8010020034A1368802149020B4313607047C04604003A40020083070CD0074B1B680120184001D120
:400B00009307F8D4002804D00122024B1A6000E00020704710023A4010B5041E02D00020FFF70AFD002C07D1A400054B9C46644420680004000C00E0002000B210BDC046B1
:400B400080013A4070B504000D00002802D00020FFF7F2FC63000F4A995A09B2691A09B20D484843002906DDA3000C4A9A58D30F9A18531006E0A300084A9A58D30F9A186F
:400B8000521053421818A400044BE15801F042F800B270BD380200201027000034020020014B1A681A60704710023A4010B500F075F810BD10B500F01DF810BD10B5044ACD
:400BC0001368802109060B431360FFF7EFFF10BD0000244010B5064B1B78002B04D1FFF7E9FF0122024B1A70FFF7E8FF10BDC046FA010020154A164B1A600023154A136079
:400C00001549164A1160164A16490A6007201649086016490B6006381549086015490A60154A13600421154A1160154A1360154A1360154A1360154A1360154A1360154A98
:400C400013601268144B1A807047C0460B000002000024404000244001000A0048002440070000800003244004032440100324404400244000022440040224405000244009
:400C8000880E2440C80E2440480F2440080F2440C80F2440880F2440FC010020064A1168064B0B40902109040B431360044B1A88044B1A607047C04600000240FFFF0FFFCE
:400CC000FC010020880F244070B50500002402E000F0AEFD0134285D0028F9D170BDC04670B5154C2368DBB2144A13700F2083431900134D2B780F2213400B43E1329343E7
:400D00002A788243134323600E4A0F4B1A600F4A0F4B1A600F490B688343062213430B600130FFF7F5FB0C491020FFF707FC03211020FFF715FC70BD00FF28403C020020BE
:400D400062F2FF0F00020001080028400008A0010400284000040240ED14000010B500F021FD00F0F5FC0021002000F0FDFC0021002000F023FDFF2000F0DCFC402000F0DC
:400D800003FD044A136804490B4313601020FFF7B5FB10BD0400284000100880024B1878012318407047C046000200204000024B181880887047C04600020020F8B5104FCD
:400DC0003E5C381803795D005D19EDB29B00DCB200F027FDB300FB189E6832680F21A1408A4311000422A2400A435C6A23680721A9408B432360326000F017FDF8BDC04630
:400E0000805D0000F8B5194A145C13181F79B900C9B27D007D19EDB2154B185CA300D3189E6833680F228A4093433360022800D10020012801D1002600E0062600F0F1FC20
:400E4000A4000A4B1C19616A0B680722AA4093431A003300AB4013430B6000F0E6FC216C0B680122BA4093430B60F8BD805D00005402002010B5002403E02000FFF7C2FF49
:400E80000134032CF9D910BD044A11684002C023DB001840084310607047C04604002840CA0807231940063B8B40825C134201D0012000E00020704710B504000134E4B25B
:400EC000042C06D0210004480430FFF7E9FF0028F4D0200010BDC046E4000020F8B50400324B1B185C229B5C9B00314A9D5801003048FFF7D5FF304B9D4203D88540FF234A
:400F00001B041D4300F04EFC00F022FC2B4B185D013880B2002100F027FC294B185D013880B2002100F04AFCFF2000F003FC402000F02AFC1020FFF7EBFA80225202214BC4
:400F40001A60204B1B681B0CFBD101221E4B1A601020FFF7E7FA1020FFF7D0FA1020FFF7D7FA1A4801681A4B19401A4B1B5D1A4A125D120413430B430360184F3E68184B5C
:400F80001E40184B1E431020FFF7B8FA2000FFF715FF00F046FC04003E60002000F038FC084B1D60200000F040FCF8BD805D0000E400002040020020FFFFFEFF580200206C
:400FC000480200200C002840140028400800284000FF80FF4C0200205002002004002840FF1FDFFF2000200010B5054B00221A70C2B21A7381221A70FFF770FF10BDC046FA
:401000000002002010B50C4C00232370FF332373207BC0B2FFF750FF2073237BDBB2032B08D8217801230B43DBB22370207BC0B2FFF754FF10BDC0460002002070B5050035
:40104000184B1C68A4B24300174AD3189C80174B1B185C229B5C9B00154A9A58154B9A4208D801001448FFF71BFF6B000E4AD31804419C802800FFF7C5FE1020FFF748FAB1
:401080000E4A11680E4B0B40A02109020B4313600C4A11680C4B0B4013601020FFF72EFA70BDC0460C00284000020020805D0000E4000020FFFFFEFF400200200400284089
:4010C000FF1FDFFF0800284000FF80FF10B5CC0807231940063B8B40DBB2002A04D0041922781343237003E0041922789A43227010BDC04670B50600002400250BE0300048
:40110000FFF772FFFFF74AFE0128FBD03000FFF74DFE24180135002DF1D0A0B270BDC046014B19547047C0465402002010B5002404E000212000FFF7F3FF0134032CF8D9A9
:40114000FFF7CEFD0020FFF79FFEFFF793FE10BD10B50B4B5B7B002B04D1FFF7E7FF0122074B5A73FFF7FAFD00F086FA0122044B9A73044A13688021C9030B43136010BDF8
:401180000002002004002840F0B5002714E00C4BDE5D0C4BDB5DF6181A00002404E08D5CAC4200D22C000132B242F8D301E0CC540133B342FBD301378742E8D3F0BDC04662
:4011C000F05D0000F45D00004300054A9A5A05495A52081800210172017303495A52704704020020100200206802002010B50400FFF7FAFEFFF7D2FD0028FBD12000FFF792
:40120000E3FF10BD10B5002403E02000FFF7EEFF0134032CF9D910BD70B5094D0C352D180026FF20002308E0EC5C944203D9A64201D2260018000133DBB28B42F4D370BD67
:4012400010020020F0B5474680B482B00400019308AB18782D4B0C335918002C03D0631EDBB2984601E000239846661CF5B20F5DBC46264F63467B76002C04D100223A765B
:401280004A5DBA760FE0013A944206D14346CA5C1E4B1A7600229A7605E04346CA5C1B4B1A764A5D9A76194B1B7E834203D91B1A164A137602E00022144B1A76134A537E88
:4012C0001B1ADBB25376927E904203D2101A0F4A907602E000210D4A91760C498A7E097E501AC9188918000200F094FC240200196B4604255D5F6843FE23DB019C4660446D
:40130000000CC0B202B004BC9046F0BD10020020401849004018800880B27047F0B5474680B482B004003C4B1E5C3C4B9B5D019342003B4BD75A3B4B1B7A002B08D03A4D50
:401340009046515B3800FFF7E3FF070043465853E1B2334A354800F039FB6300344A9A5A974207D30021334B1955BD1AADB20123984603E0D51BADB2002398464346002B3B
:4013800015D12D4B9B5D9D4211D92A4B1B5D254A12191279934206D32000FFF715FF0022244B1A551EE00133224A13551AE06B469B889D4206D9204B9B5D9D4212D24346E3
:4013C000002B0FD113029C46194801190B7A66463343FF18BF1A3A0A6300C2520F720022144B1A556B469E88B5420DD94346002B0AD0FF2D04D90E4B1C19FF23237307E035
:401400000B4B1C19257303E0094B1C190023237302B004BC9046F0BDDC5D00005C02002004020020FC000020680200209C02002010020020600200206402002010B504002B
:4014400000F0A2F82000FFF769FF10BD10B5002409E021000548FFF723FD002802D02000FFF7ECFF0134032CF3D910BDE800002030B583B00400184B1B181D7B174B1A5C1F
:4014800004210020FFF7C8FEFF281ED0144B1B5D0093144B04220021FFF7D4FE010080B26B1CDBB20C4A5219127B002A06D10A4AD3181973551901232B730BE0064CE41874
:4014C000217BFFF725FF207304E0034B5D1900232B73054803B030BDFC000020740200205C02002055210000FFFF000010B51020FFF70EF801221E4B1A601E4B1878C0B247
:40150000FFF79CFD1C4B1B785BB2002B05DA1A4A137801218B43137026E0164C2078C0B2FFF7CAFC20702378DBB2032B05D8114B1878C0B2FFF7D2FC16E00F4B1A78012192
:401540008A431A701B785B060ED500220B4B1A7006E00B4AD15C0B4AD1540133074A1370064B1B78002BF4D01020FEF7C7FF10BD140028400C020020000200202B020020AD
:4015800044020020E800002070B582B0154B1C5C154EC1B2154D009533002200144800F093FA335D295D134A1155DB2B03D8DB08114A135514E0EC2B03D81B090E4A135569
:4015C0000EE0F42B03D85B090B4A135508E0F92B03D89B09084A135502E00022064B1A5502B070BDDC5D0000740200205C0200209C0200206402002070020020024A136810
:4016000040218B431360704704002840044A1168044B0B40802189000B4313607047C04608002840FFFCFFFC70B5002208E00D498B5C5D080C4CA55401335B088B540132AB
:4016400003789A42F3D31020FEF762FF074A1168074B0B4007490B4313601020FEF74EFF70BDC0464C0200205002002008002840FFFCFFFC0002000170B5254B04221A701C
:40168000012159709A702C32DA80224A9A80224A9A60FFF7B3FF002304E099001F48204A885001331A4A52789342F6D3002306E010211C4AD1540C391B4AD1540133032BAA
:4016C000F6D9FFF7A3FF194E114C3100200000F0DDF8174D29000120FFF756FD200000F0E6F83100200000F0D1F829000120FFF74BFD200000F0FCF82000FFF795FF002460
:4017000003E02000FFF740FF0134032CF9D970BD9C02002098090000F85D00000000FF0FE400002048020020580200209A0D00004C020020044B1B68002BFBDB0002034B2C
:401740001843014B186070470000014040000080034B1B68002BFBDB024A014B1A607047000001404000004010B5064A13680724234000021843CB00FF21194001431160C2
:4017800010BDC04600030140044B1B68002BFBDB0002034B1843014B186070470000014041000080034B1B68002BFBDB024A014B1A607047000001404100004010B5064AA5
:4017C00013680724234000021843CB00FF2119400143116010BDC0460403014004490A68D2B240239A43800118401043086070470003044004490A68D2B240239A43800156
:40180000184010430860704700020440000000000230800803D00138FDD1C046C046C0467047EFF3108072B6704780F310887047044B1B681F221340082BF9D0024B186001
:401840007047C0460802244040022440F7B59C180023071C08268025019100922370237800982B432370BB689B6C9847019B984202D22378AB432370013E6D08002EEED123
:401880002378F82B01D9F8232370F7BD70B5051C0E1C00242B789C4208D2AB68221C281C311C1B68FFF7D2FF0134F3E770BD38B5051C00242B789C4219D2AA6813681B5D34
:4018C000DB080F2B00D90F23D16BD268C95C1155AA68042B04D9936D906B211C012203E0936D906B211C002298470134E2E738BDF0B5041C002687B063789E4262D2A3681B
:401900005A6C925D0392002A01D1013203921A6C925D019201992278914251D29A689B69515C0F221140B2000492002205910499019D5A50019B5B000293039B019A9B18D5
:401940009D423DD2A768E388A0885843FB68595D00F060F93B68595D00F0D2F8059B5843194B40005A2802D95B084008FAE7BA6904991B0C1B045350A36882085B6B0121D9
:401980005855A368C008DB69029F5A550F22A36849421B6A5855A3685B6A5A55A368986AC1530021D86AC153186B9B68C1535B19197801350A401A703B1C02330293BCE796
:4019C000013699E707B0F0BD0000FFFFF0B585684E002B6B925B9B191C8887B0141B0094AC6A1A80A45B6B6A0294EC6A5F5CA45B2B6A03946C6B7F00645C5B180494AC688E
:401A00000193645C1B780594009CE40FA4460F24251C6744009C3D40AC46E51764196C409C4203D2012B05D0013B00E00133FF273F2B00D89F00019D2B7065460F2D29D03A
:401A4000002D24D0BC4225D8059C029F24090094974200D9171C039D954200D2151C009A092A01D8141C01343A1C0A2C14D1EA1B934206D9049A92089A42924152429B1A83
:401A800000E001338268D26953543A1C04E0151C644601E0151C00246746836824015B6A5F5483689F6ABA53DA6A9B6895530F225B181D782A401A7083689B6859180B7887
:401AC0001C430C7007B0F0BD70B58068446BC069655C405CFF213F2801D88100C9B246B2FF24002E01DB4000C4B28D4201D9291C6C08012081439954049B9C5470BD00003E
:401B0000002243088B4274D303098B425FD3030A8B4244D3030B8B4228D3030C8B420DD3FF22090212BA030C8B4202D31212090265D0030B8B4219D300E0090AC30B8B4234
:401B400001D3CB03C01A5241830B8B4201D38B03C01A5241430B8B4201D34B03C01A5241030B8B4201D30B03C01A5241C30A8B4201D3CB02C01A5241830A8B4201D38B02F5
:401B8000C01A5241430A8B4201D34B02C01A5241030A8B4201D30B02C01A5241CDD2C3098B4201D3CB01C01A524183098B4201D38B01C01A524143098B4201D34B01C01A6A
:401BC000524103098B4201D30B01C01A5241C3088B4201D3CB00C01A524183088B4201D38B00C01A524143088B4201D34B00C01A5241411A00D20146524110467047FFE7C6
:401C000001B5002000F0F0F802BDC0460029F7D076E7704703460B437FD4002243088B4274D303098B425FD3030A8B4244D3030B8B4228D3030C8B420DD3FF22090212BA3C
:401C4000030C8B4202D31212090265D0030B8B4219D300E0090AC30B8B4201D3CB03C01A5241830B8B4201D38B03C01A5241430B8B4201D34B03C01A5241030B8B4201D368
:401C80000B03C01A5241C30A8B4201D3CB02C01A5241830A8B4201D38B02C01A5241430A8B4201D34B02C01A5241030A8B4201D30B02C01A5241CDD2C3098B4201D3CB0131
:401CC000C01A524183098B4201D38B01C01A524143098B4201D34B01C01A524103098B4201D30B01C01A5241C3088B4201D3CB00C01A524183088B4201D38B00C01A5241BD
:401D000043088B4201D34B00C01A5241411A00D201465241104670475DE0CA0F00D04942031000D34042534000229C4603098B422DD3030A8B4212D3FC22890112BA030A62
:401D40008B420CD3890192118B4208D3890192118B4204D389013AD0921100E08909C3098B4201D3CB01C01A524183098B4201D38B01C01A524143098B4201D34B01C01A89
:401D8000524103098B4201D30B01C01A5241C3088B4201D3CB00C01A524183088B4201D38B00C01A5241D9D243088B4201D34B00C01A5241411A00D20146634652415B1038
:401DC000104601D34042002B00D54942704763465B1000D3404201B5002000F005F802BD0029F8D016E770477047C04670B5002830D0C317C5185D40C40F280000F092F892
:401E00009E231B1A962B0DDC9622D21A95406A02520AD8B25202C005520AE40702432243100070BD992B19DC9922D21A9540124A2A40690704D00F210D40042D00D00432FD
:401E4000510103D50C4B1A409F231B1A9201520AD8B2DFE7002400200022DBE705222E00121AB921D6402A00C91A8A40551EAA4135001543DBE7C046FFFFFFFB4200120ED4
:401E8000511C4302C9B270B55D0AC40F012915DDE02189008C466D071B0B6244002128000D0D2D052B431C4D52052B40520813435B00E4075B082343190070BD002A15D19B
:401EC000002D1FD0280000F02DF80A281DDC0B232A001B1ADA4013000200153295400F4A1B03121A52051B0B520DD7E7002D06D080221B0B120313436D07094ACEE7084A45
:401F00000023CBE700220023C8E703000B3B9D402B000025E3E7C046FFFF0F8089030000FF0700001C2101231B04984201D3000C10391B0A984201D3000A08391B099842D4
:401F400001D30009043902A2105C40187047C04604030202010101010000000000000000014B18687047C046700100200E4B70B500251E000D4CE41AA410A54204D0AB00C7
:401F8000F35898470135F8E704F05CF8084B00251E00084CE41AA410A54204D0AB00F35898470135F8E770BD5060000050600000506000005860000003008218934202D020
:401FC00019700133FAE77047F0B58BB014001D1E129906DA802424061B191D0014002D2300E000230B702023149E03229E43462E07D03300453B59424B411099013ACB18EA
:40200000109309AB049308AB0393139B00920293109B220001932B0000F0FCFC0700472E02D1119BDB072DD5109BFB180793462E14D13B78302B0CD1002200232000290017
:4020400002F048F8002804D10123109A9B1A139A1360139B079A1B68D3180793002200232000290002F036F83022002802D0079B099307E0099B0799994203D9591C09910E
:402080001A70F7E73800099B159ADB1B13600BB0F0BDF7B52B2307000C000270861C002901DA2D234C427B70092C1CDD6B46DD1D20000A21FFF794FE013D3031297020006A
:4020C0000A21FFF7A7FD04000928F1DC013D30342C706B4607333000AB4209D92B78013533700136F5E73023E4183370B01C7470C01BFEBDF0B595B00C000A920B931A9D43
:40210000099001F04DFA036818000D9300F0F4FB0023129323680E900C930C99277E2B680722C90501D59B1800E0073393431A0008322A601A685B68A264E3640122E56C0B
:40214000A66C6B005B080F935242C04B30000F9903F00CFD002819D10122BC4B524230000F9901F0C7FF002810D1002200233000290001F0B5FF002803D023002D224333DC
:402180001A70B34D472F0ED8B24D0CE032002B003000290003F0EAFC002800D19AE1AE4D472F00D8AD4D03230C9A236101339A432260002642E0672F00D193E1472F00D1BB
:4021C00090E10C9A0021134312AA059211AA0392232223600691019308A9636852180292009332002B0004970998FFF7EDFE20233A0005009A43472A00D18EE11199652FE6
:4022000000D996E1200001393A0050301191FFF740FF129A060083182361012A00DD85E12268D20700D581E1232308AA9B181B78002B03D023002D2243331A700B9B13AA79
:40224000009321000A9B099800F0A4F9431C02D1012040429BE12268530501D4236964E0652F00D8CCE0A06CE16C0022002301F031FF00282CD00123794A0A9909980B9D31
:40228000A847431CE4D0119B129A934208DB2368DB0705D4236800259B0700D50FE113E10B9D0E9B0D9A0A990998A8470025431CCED0129B013B9D42ECDA220001231A324E
:4022C0000A9909980B9EB047431CC1D00135F0E7119B002B2BDC0123614A0A9909980B9EB047431CB4D0119B002B05D1129B002B02D12368DB07CDD50B9E0E9B0D9A0A9986
:402300000998B0470026431CA2D0119B5B429E420ADA220001231A320A9909980B9FB847431C95D00136F0E7129B2A00ACE0A36D129E9E4200DD1E00002E05DC00230C93E1
:40234000F343DB170F9315E033002A000A9909980B9FB847431CF1D17AE7220001231A320A9909980B9FB847431C00D170E70C9B01330C930F9BA26D0C993340D31A9942B9
:40238000EBDBAE18119B129A93420DDB2368DB070AD4129B119AED18AD1B9B1A9D4200DD1D00002D09DC11E00E9B0D9A0A9909980B9FB847431CECD14AE72B0032000A99F1
:4023C00009980B9EB047431C00D141E7EF43FB1700260C930AE0220001231A320A9909980B9FB847431C00D132E70136119A129B0C999B1A2A000A409B1A9E42EBDB49E7A1
:40240000129B012B02DC01231A4245D001232A000A9909980B9FB847431C00D118E70E9B0D9A0A9909980B9FB847431C00D10FE7A06CE16C0022002301F04CFE002801D0B1
:4024400000251AE0129B6A1C013B26E0FFFFEF7F6A5E0000665E0000725E00006E5E0000765E0000220001231A320A9909980B9FB847431C00D1EBE60135129B013B9D42E2
:40248000F0DB2200330050320A9909980B9DA847431C00D0FEE6DBE62A000A9909980B9DA847431CEDD1D3E62200012319320A9909980B9EB047431C00D1C9E60135E3681B
:4024C000139A9B1A9D42EFDB139BE06898425EDA18005CE080236268DB00511C00D06AE6073202E0002A02D10122626069E60C9908A80B430021069112A9059111A903915A
:40250000232109182360019300922B000497029132000998FFF758FD0500119BDA1C02DB626893421CDD023FFFB267E6013323617AE6662F15D16368002909DD2161002BA1
:4025400002D12268D2071ED50133591821611AE0002B03D101222168114213D09A1C11E06727119B129A934206DB22682361D20709D50133236106E00121002B01DC4918FF
:40258000C91A8A182261119B0026A3654CE615B0F0BDC046F7B5170001938A680B6900900C00934200DA130022003B6043321278002A01D001333B6023689B0602D53B6848
:4025C00002333B60062523681D401ED0230043331B785A1E9341226892061CD53020E1184331087021005A1C45310978A2184332023311700FE02200012319320199009825
:40260000089EB047431C0ED00135E3683A689B1A9D42F0DBDAE72200019943320098089DA847431C02D10120404220E006232068E1683A6803400025042B03D18D1AEB436F
:40264000DB171D40A3682269934201DD9B1AED180027BD420AD0220001231A3201990098089EB047431CDED00137F2E70020FEBDF0B58BB006920A004332079305900492F2
:402680000A7E0C00109B6E2A00D1ABE011D8632A22D009D8002A00D1B5E0582A00D0C5E045310A70814A4FE0642A1DD0692A1BD0BCE0732A00D1AAE009D86F2A29D0702A93
:4026C00000D0B3E0202209680A43226037E0752A1FD0782A33D0A9E00E001A684236111D196013683370A4E021681A68080606D4490604D5111D19600023D55E02E0111DA9
:4027000019601568002D3BDA2D23049A6D42137036E021681A68080606D4490604D51568111D1960ADB202E0111D196015685F4B227E039308276F2A1DD00A271BE02200A4
:402740007821453211705A4A19680392081D226818600D68100602D4500600D5ADB2D30702D520231A4322601027002D03D1202322689A4322602300002243331A7002E09E
:402780000A274A4B03936368A360002B09DB0422216891432160002D05D1049E002B11D07BE0002D79D0049E28003900FFF72EFA039B013E5B5C280033703900FFF7A0F912
:4027C000051EF1D1082F09D12368DB0706D563682269934202DC3023013E3370049B9B1B23612BE009681A68080607D4490605D5111D19601368A28A1A8004E0111D196001
:40280000136862691A600023049E236116E01A68111D1960166800216268300000F0CEFE002801D0801B6060636803E0260042363270012323610023049A1370079B09AA98
:4028400000932100069B0598FFF7A4FE431C02D10120404227E02369320006990598079DA847431CF4D0236800259B070FD4099BE068984217DA180015E0220001231932B8
:4028800006990598079EB047431CE1D00135E368099A9B1A9D42F0DBE9E72600039B42361B7833708EE70BB0F0BDC046785E0000895E00000EB410B59DB002A90290086151
:4028C0000B48822488604861012040421FABC881084804CBA400006801938C8101F088FA0023029A13701DB010BC08BC03B01847FFFFFF7F700100200023C25C0133002AFC
:40290000FBD1581E7047F0B503690C6989B00700059100269C4279DC0B00013C1433A50003935B1904930300143302935D19049B28681B68591C0193FFF7E2F80190B042B1
:4029400033D0039B02989C460696634604CB9C46019B91B25943120C5A4389190B0CD3180793069A1E0C038889B29B1802685B1A110C6A46928B8A1A1914521811149BB217
:402980001204134308C0049B06916345DDD22B68002B0AD1029B043DAB4201D33C6104E02B68002BFAD1013CF4E70599380001F029F8002829DB0020019B02990133039AC0
:4029C000019340CA0B881818B3B2C31A0868360C000C801B1D14451928149BB22D042B4308C1049B9342ECD2029AA300D3181A68002A0AD1029A043B9A4201D33C6104E06C
:402A00001A68002AFAD1013CF4E7019E300009B0F0BD0000F0B516001F00446A9DB00490259D06960797002C08D1102000F0BCFD049B5862446084600460C460049B5B6AC2
:402A4000196800290BD05A68012393404A608B60049800F0FFFD0022049B5B6A1A60079B002B05DA01232B607B005B08079301E000232B60079CC84B220019931A409A42DF
:402A800019D1C64B249A1360069AC54B002A02D1240300D1C34B269A1800002A01D100F07DFDD978DA1C002900D00532269918000A6000F073FD069E079F00220023300022
:402AC000390001F007FB051E0ED00123249A1360B54B269A1800002A01D100F05FFDB34A26990A6000F05AFD1AAB01931BAB009332003B00049801F00BF8630005905B0DB8
:402B000009D03A03AA4C120B1443AA4A300021009E1817951AE01A9B1B9A9E18A64BF318202B08DDA54A0698B218D0404022D31A9C40204303E020220698D31A984003F0B8
:402B4000ADF801239E4C013E0919179300229D4B02F0B8FC9C4A9D4B02F03AFA9C4A9D4B01F0E6FA040030000D0003F055F89A4A9A4B02F02DFA02000B002000290001F0AA
:402B8000D7FA04000D0003F011F80022039000232000290001F0A4FA00280DD0039803F03BF802000B002000290001F093FA43424341039AD31A039301231693039B162B18
:402BC00011D88749DB00C91808684968069A079B01F09AFA002805D0039B013B03930023169300E016901A9B9E1B00230B93013E0C9604D50C9B5B420B9300230C93039B8E
:402C0000002B08DB039A0C9B944663440C9300231192089307E00B9B039A9B1A0B935342089300231193229B0125092B25D8052B02DD0025043B2293229B981E032824D877
:402C400001F02EFA060E0204012302E0012308E000231093239B002B20DD1F000A9321E00023239A1093039B9F187B1C0A930123FA18002A16DD130014E0012700237F4234
:402C8000229310950A97123305E0012701237F4210930A9711330022239203E001273B000A972397049A546A00226260043211001431994204D86168520001316160F6E774
:402CC0006168049800F08EFC049B20605B6A1B680D930A9B0E2B00D981E1002D00D17EE1069B079C14931594039B002B31DD0F223B491340DB00CB185C681B680E930F94BC
:402D0000039B02241D11EB060AD514981599354B15401A6A5B6A01F037FD069007910134304E002D0ED001231D4208D00E980F99E4183268736802F04BF90E900F916D103D
:402D40000836EEE70E9A0F9B0698079901F01CFD4CE0039B02245D42002D49D0149815990F231F4A2B40DB00D3181A685B6802F02FF90023069007911A4E2D11002D33D025
:402D80000122154205D0A4183268736802F020F901236D100836F1E70000F07F0F270000A35E00009A5E0000765E0000775E00000000F03F01FCFFFF320400001204000014
:402DC000000010FE0000F83F61436F63A787D23FB3C8608B288AC63FFB799F501344D33FB05E0000885F0000002B01D006900791169B002B1DD0069D079E0022C74B280064
:402E0000310001F06DF9002813D00A9B002B10D0002F00DCDFE0039B3100013B0E930022BF4B280002F0D4F80134069007913E0002E0039B0A9E0E93200002F0EDFE069AC0
:402E4000079B02F0C5F80022B64B01F071F9B64A12901391129C139D9446139B634418931D00002E1CD1069807990022AF4B02F029FB2200189B0690079101F045F9002803
:402E800000D054E2AA481399844661440B0006980799220001F024F9002800D03DE29AE0109A731EA349DB00002A49D0CB181A685B680020A04901F067FC2B00220002F0EC
:402EC00001FB129013910D9D0698079902F06EFE040002F0A1FE02000B000698079902F0F1FA01356B1E30341C70129A139B0690079101F0F5F8002800D02EE3069A079B2D
:402F00000020864902F0DEFA129A139B01F0E8F8002800D0C7E00D9BEB1AB3425BDA1298139900227E4B02F053F8002212901391069807997A4B02F04BF806900791C3E741
:402F4000C9182200086849682B0002F041F80D9C12901391A5190698079902F027FE060002F05AFE02000B000698079902F0AAFA303626700134069007910022A54222D149
:402F80006D4B1298139901F0D3F802000B000698079901F0B9F8002800D084E0129A139B0020654902F08EFA02000B000698079901F096F800280ED06B1E1A78302A00D047
:402FC000CBE21D00F8E706980799554B02F000F806900791BFE7149B159C069307941B9B002B00DA81E0039A0E2A00DD7DE0D300504AD3185C681B6808930994239B002B0D
:4030000015DA0A9B002B12DC00D088E1089809990022464B01F0DCFF069A079B01F07EF80A9B08931E00002800D07BE182E10D9D069E079F089A099B3000390001F0A4FBF8
:4030400002F0B4FD040002F0E7FD089A099B01F0BFFF02000B003000390002F033FA220001356B1E30321A700D9B0A9AEB1A9A422ED102000B0001F05BF806000F000200E8
:403080000B000898099901F02BF800280FD10898099932003B0001F01DF8002800D15EE2E30704D45BE20E9B039300E01D006B1E1A78392A08D10D9A9A42F7D1039A0D9999
:4030C0000132039230220A701A7801321A7046E20022134B01F07CFF0022002306000F0000F0F8FF0028A5D039E2109A002A44D0229A012A0BDC179A002A02D00F4A9B1871
:4031000002E036231A9A9B1A089D0B9C29E00A9B5D1E089BAB4213DB5D1B18E00000F03F0000244000001C400000C0FC000014400000C07CB05E00000000E03F33040000E9
:40314000089B0895EA1A0025119B9B1811930A9B002B04DA0B9B0A9A9C1A002301E00B9C0A9B0B9A0121D2180B920C9A0498D3180C9300F00FFB060002E0089D0B9C109EEF
:40318000002C0ED00C9B002B0BDD0C9A2300944200DD13000B9AE41AD21A0B920C9AD31A0C93089B002B20DD109B002B17D0002D11D031002A00049800F07EFB059A0100C8
:4031C0000600049800F0EFFA05990E90049800F041FA0E9B0593089B5A1B06D000E0089A0599049800F068FB05900121049800F0D1FA119B0890002B00D1C0E11A00010009
:40320000049800F059FB229B0890012B17DC0025069BAB420ED1079B1B03AB420AD1199B079A134206D00B9B013501330B930C9B01330C93119B0120002B0DD000E000259E
:40324000089B089A1B690E9303339B00D318586800F056FA2023181A0C9BC0181F23184009D001331B1A042B02DD1C23181A03E0042B08D018001C300B9B24181B180B93D8
:403280000C9B1B180C930B9B002B05DD1A000599049800F065FB05900C9B002B05DD1A000899049800F05CFB0890169B002B1DD00899059800F0A6FB002817DA039B0A2244
:4032C000013B039305990023049800F0DCF9109B0590002B00D159E1310000230A22049800F0D1F90600002F37DC33E00A9B0A9F002B2ADC229B022B27DD002F12D1089913
:403300003B000522049800F0BEF908900100059800F078FB00280DDC04E0089602E000231E000893239B0D9DDB4303930AE00E9B089603930D9B0D9A5D1C31231370039BDE
:40334000013303930A960026F3E0109B002B04D10D9DB5E0229B022BCFDC002C05DD31002200049800F0FCFA06000A96002D12D07168049800F036F93100040033690C3131
:403380009A1C92000C3000F024F901222100049800F0E6FA0A900D9B7D1E0B935B190E9308990598FFF7AFFA310010900400059800F028FB0A9A05000899049800F03DFBCC
:4033C00001230C93C36830340700002B04D10100059800F017FB0C903900049800F03AF90C9B229A134308D1069A0133134204D1392C2AD0002D1CDC1DE0002D06DB229B64
:403400001D431BD10123069A134217D10C9B002B11DD05990122049800F0A2FA0899059000F0F0FA002802DC05D1E30703D5392C0BD0109C31340B9B5D1C0FE00B9B5F1C68
:403440000C9B002B0CDD392C05D10B9B0B9A5D1C3923137057E03D000B9B01341C7068E00B9B0E9A3D001C7093423CD000230A220599049800F007F90A9B05909E4208D12C
:40348000310000230A22049800F0FDF806000A900DE0310000230A22049800F0F4F8002306000A220A99049800F0EDF80A900B9776E700230A220599049800F0E4F805909A
:4034C00008990598FFF71FFA0D9B3030287001350400EB1ABB42ECDB3D1E00DC01250A9600260D9B5D1905990122049800F038FA0899059000F086FA002804DC13D1E307A0
:4035000001D410E01D006B1E1A78392A08D10D9A9A42F7D1039B013303933123137008E001321A7005E06B1E1A78302A01D11D00F9E70899049800F08DF80A9B002B0ED09A
:40354000002E05D09E4203D03100049800F082F80A99049800F07EF801E00E9B03930498059900F077F800232B70039B249A01331360269B0D98002B10D01D600EE0229BA6
:40358000012B00DC43E6119D012065E6002F00DDDEE6229B022B00DCDAE6AEE61DB0F0BD004870477401002010B5034B0100186800F05CFB10BDC04670010020C9B2821874
:4035C000904204D003788B4202D00130F8E700207047002310B59A4203D0CC5CC4540133F9E710BD70B5466A04000D00002E07D11020FFF7D9FF6062466086600660C660A8
:40360000666AF368002B09D0636AAA00DB689B18186800280ED002681A6017E021220421200000F0C9FA636AF060DB68002BEBD100200EE001210E00AE40721D920020009E
:4036400000F0BAFA0028F3D04560866000230361C36070BD70B5456A06000C00002D07D11020FFF7A1FF7062456085600560C560002C07D0726A6368D2689B00D3181A68D6
:4036800022601C6070BDF7B5070008000C000D691E00002101921430019A0388013153439B190668360C56431A0C9446B4446246160C120494469BB2634408C08D42EBDC9D
:4036C000002E1BD0A3689D4212DB63683800591CFFF788FF2100236901909A1C92000C310C30FFF776FF21003800FFF7B3FF019C2B1D9B00E31801355E6025612000FEBDAA
:4037000000220300010C914201D103041032190E01D108321B02190F01D104321B01990F01D102329B001000002B03DB20205B0000D5501C70470722036810B501001A4024
:403740000CD001240020234223D10222134203D0E34020000B601CE09B0818E098B2002801D110221B0CD8B2002801D108321B0A180701D104321B09980701D102329B082B
:40378000D80704D45B082020002B02D0013210000B6010BD10B50C000121FFF723FF01234461036110BDF0B50B691400126989B00D00934201DA25000C002F692669AA682A
:4037C000BB1969680193934200DD0131FFF70AFF0200BB1914329B00D3189C46002113000290634501D202C3FBE71435BF00EB191434B6000593A31903950793079B9C4231
:4038000051D2208800281ED015000026039F08CF069504936B461B8A434319002B88CB1804999B19090C41432E68360C89191E0C89190E0C9BB209040B4308C5059BBB42DA
:40384000E5D8069B5E6023681D0C1FD0002110001368039F04913E8801686E43090C7118049E9BB289190E043343036008CF86881B0C6B43090C9B195B18190C049105995E
:4038800006900430B942E6D806994B6004340432B4E704235B429C4463461B68002B05D1019B013B0193019B002BF2DC029B019A18001A6109B0F0BD0323F7B51340050005
:4038C0000E001400002B08D02349013B9A00525800233100FFF7D7FE0600A310019338D06C6A002C07D11020FFF75EFE6862446084600460C4606F6ABC68002C10D11749A3
:403900002800FFF747FF0023B8600400036007E0019B5B1001931CD02068002810D004000122019B1342F3D0310022002800FFF73AFF070031002800FFF78CFE3E00E7E712
:40394000220021002800FFF72EFF002320600360E5E73000FEBDC046785F000071020000F0B50C0017002369551185B0EB180193013300934968A3680290009A934202DAC6
:4039800001315B00F9E70298FFF72CFE00230200060019001432AB4203DA980011500133F9E7EB43DB171D402300AD0055192269143392009A1894461F22174014D0013225
:4039C000D21B0392002219682800B9400A4304C504CB0399CA409C45F5D84260002A07D0019B0233009303E004CB04C59C45FBD8009B0298013B33612100FFF72BFE30009D
:403A000005B0F0BD03690A6910B59B1A0400181E12D1930014341431E218C918043A043913680868834204D083429B410120184302E09442F2D3002010BDF0B50C0085B047
:403A40000700110020001500FFF7DCFF061E07D101003800FFF7C6FD01234661036155E000230193984204DA23002C001D000123019361683800FFF7B5FD019B26692F0040
:403A8000C3601434B300E318020002932B69002514379B00FB180393143208CC69469C4608CF0432009363468B808B885D19009B9BB2EB1A65460193009B2D0C190C019BC5
:403AC000691A1D14131F9C466B4649199B880D1409040B4361460B60039BBB42DDD8029913008C420BD202CC8BB25B191D14090C49190D149BB209040B4308C2EFE7043BC2
:403B00001A68002A01D1013EF9E7066105B0F0BDF7B51D000121089F1400FFF763FD2B036D0006001B0B6D0D02D08022520313430193002C18D068460094FFF7FCFD009C4E
:403B4000002809D0019B20211A00091A8A40C34022437261019300E07461019CB461631E9C410134346107E001A8FFF7E4FD0124019B346173612030002D06D00B4BED18C3
:403B800035232D183D60181A0BE0094BC018094B3860E3189B00F3185869FFF7B1FD6401201A099B18603000FEBDC046CDFBFFFFCEFBFFFFFFFFFF3F4A4370B51100140044
:403BC00000F054F8051E03D022000021FEF7F4F9280070BD70B50500002944D00C1F2368002B00DAE418280000F027FA1E4A13681100002B02D16360146031E0A3420DD9BD
:403C00002268A018834203D118685B688218226063600C6024E0A24203D813005A68002AF9D11E689819A0420BD12168711858181960824214D110685268411819605A6038
:403C40000EE0A04202D90C232B6009E021686018824203D1106852684118216062605C60280000F0EBF970BD30020020032370B5CD1C9D43083506000C2D01D20C2501E0E3
:403C8000002D01DBA94202D90C23336048E0300000F0D3F9234B1C681A002100002913D00B685B1B0DD40B2B02D90B60CC181EE08C4202D1636813601AE04B6863600C00A3
:403CC00016E00C004968E9E7174C2368002B03D1300000F08BF920602900300000F086F9431C18D00323C41C9C43A0420DD12560300000F0A3F9200007220B30231D9043A4
:403D0000C31A0ED05A42E2500BE0211A300000F06DF9431CEBD10C233000336000F08EF9002070BD300200202C020020F0B58E6885B007000C00039201939E4243D8902323
:403D40008A89DB001A423ED003250969236801985B1A029363695D43EB0F5D19029B6D1001331B18AB4200D91D00530510D529003800FFF77BFF061E14D0029A2169FFF7B1
:403D800028FCA289194B134080221343A38112E02A00380000F053F9061E0CD121693800FFF718FF0C23402201203B60A38940421343A38117E0029B2661F6182660656197
:403DC000019EED1AA560019BB34200D21E0032000399206800F01CF90020A3689B1BA36023689E19266005B0F0BDC0467FFBFFFFF0B59FB0029005938B890F0016001B0638
:403E000010D50B69002B0DD14021FFF72FFF38603861002804D10C23029A01381360D8E040237B61002306AD6B6120336B761033AB7634002378002B03D1A31B049312D0C0
:403E400003E0252BF9D00134F4E7A31B320039000298FFF76BFF431C00D1B4E06A69049B944663446B612378002B00D1ABE00122002352426A6002A95432521801342B606F
:403E8000EB60AB601370AB65534E217805223000FFF794FB002807D00123801B83402A68013413432B60EFE72B68DA0604D55322202102A8121811701A0704D553222B21F2
:403EC00002A81218117022782A2A03D0099B00200A210EE0059A111D12680591002A01DB099204E05242EA60022213432B6001340BE02278303A092A04D84B4301349B18E1
:403F00000120F6E7002800D0099323782E2B1ED163782A2B0AD1059B02341A1D1B680592002B01DA01235B42079310E000230A201A0001346B6021783039092904D842438D
:403F4000013452180123F6E7002B00D00792234E217803223000FFF731FB002806D04023801B83402A68013413432B60217806221B48661C2976FFF721FB002812D0194B60
:403F8000002B06D10722059B073393430833059314E005AB00933A00134B29000298FEF7A9F807E005AB00933A000F4B29000298FEF75EFB0390039B013304D06B69039AB2
:403FC0009B186B6135E7BB890B985B0601D5012040421FB0F0BDC046B05F0000B65F0000BA5F0000F52000002D3D0000002370B5064C050008002360FCF714FA431C03D1C9
:404000002368002B00D02B6070BDC046AC02002010B5884202D98B18984201D3002305E09B1A013A08D3995C8154FAE7934203D0CC5CC4540133F9E710BD70477047F8B551
:4040400006000C001500002904D11100FFF70EFE040018E0002A03D1FFF7BCFD2C0012E000F013F885420ED929003000FFF7FEFD071E07D021002A00FFF7ABFA210030001B
:40408000FFF7A8FD3C002000F8BD0B1F1A68101F002A04DA891804390B68D0180438704702B4714649084900095C49008E4402BC7047C0468446101C62468C46191C6346F5
:4040C00000E0C0461FB500F019FF002801D40021C8421FBD10B500F06DFE4042013010BD10B500F00BFF002801DB002010BD012010BDC04610B500F001FF002801DD0020DB
:4041000010BD012010BDC04610B500F093FE002801DC002010BD012010BDC04610B500F089FE002801DA002010BD012010BDC046F8B556465F464D464446F0B40F00FD0FA8
:40414000AA4609037C002E005F00450F490A7F0D2943C5001803BC46400A570F640DDB0F3843D2009A4500D1AAE06646A61B002E00DCFFE06346002B39D10300134300D0CA
:40418000D9E06B0709D00F232B40042B05D02B1DAB42AD416D4249191D000B0200D482E0CA4B01349C4200D1FEE00A005646C84BED081A405007640552020543120B640DFD
:4041C000002112030B0D1B056405120B1A436308C04CF60714401C43640064083443280021003CBC90469946A246AB46F8BDB74B9C42C6D080231B041843382E00DDEBE0DB
:404200001F2E00DD1EE120239B1B9C4603006746BB40984613004746F3403B436746BA40571EBA4113430200F240EB1A9D42B6411D008A1A7642911B0B0231D54A02560A40
:40424000002E00D1B4E03000FDF76CFE0300083B1F2B00DDB5E020222900D21AD1409E400A009D4032439C4200DDB1E01C1B631C1F2B00DDD5E0202114002800C91A8C406F
:40428000D8408D400443DA40681E854111002543002476E74146314300D134E2310045466B0700D06FE756464807ED08C9080543864B9C4235D00A036405120B640D7FE725
:4042C0006346E31A9B46002B00DC8BE06746002F3CD07E4FBC4200D153E780273F0438435B46382B00DCF7E00243501E82410020D2B253194218AB4289411D00494289180B
:404300000B02CDD5714B01349C4200D13DE101206F4A6B080A4028401843D507054351082FE72B000B4300D1CBE180231B030B431A03120B44E7013E002E6DD1AE1AB5424F
:404340009B41091A5B42C91A350075E70700174300D116E701235B429C46E3445B46002B00D0E0E0AA18AA429B4109185B4259181500C5E7002E75D1661C7605760D012E3B
:4043800000DCF3E0AE1AB0464545BF410E1A7F42F61B370200D48FE0551BAA42B641411A76428E1B9A464BE756460022002507E72800FDF7B7FD20300300083B1F2B00DC12
:4043C00049E72A002838824000259C4200DC4DE73F49E41A1140D4E60243501E8241D3B2002222E7002B00D0F3E0631C9C465B055B0D012B00DC9FE0344B9C4500D1C3E025
:40440000AA180918AA42804140424118CD075208154349086446B4E62C4B9C4200D0ECE6AFE611001F3CE1400C00202B00D17FE04021CB1A9A4015436A1E954100212543F7
:4044400000242DE733000700203BDF403B00202E70D04027BE1BB0400243501E824113430022E2E6002C4FD0184CA44500D1ABE08024240476422143382E00DDDFE01F2E76
:4044800000DD43E12027BC1BA1460C004F46BC40A0462C004746F4403C434F46BD406F1EBD41F1402C43151BAA429241411A5242891A64469A46BFE641464546314300D044
:4044C000BEE6002600240025F2E6C046FF070000FFFF7FFFFFFF0F801F2B59DC2027FF1ABC46070063469F405B46B9461700DF40B8464F4643461F4363469A40531E9A4129
:404500005B463A43D840F4E60C002C435CD0F643002E55D1551BAA42A441411A6442091B9A46644688E6964FBC4200D0D8E628E6002280E700208FE70B002B43002C00D0C6
:40454000C2E0002B00D101E10300134300D118E6AB18AB42B6410918764271180A0200D409E1884A1D00114064460AE6002C5BD10E002E4300D08AE00100114300D1C2E00D
:40458000010015009A46FCE56446002100258FE620235B429C46DC4463460700DF405B46BC46202B00D1ACE040235F46DB1B98400243501E8241634613431A00002098E6C0
:4045C0006F4CA44500D057E70100150064469A46D7E5002C39D10C002C436ED0DB43002B1AD0674CA44568D0382B00DDA4E01F2B00DDAEE020240F00E41AA740B9462F00D8
:40460000DF40B846A3464F46444627435C46A5406C1EA541D9403D43AD1895429B4109185B42591864466BE60C002C4315D1010011437BD0010015009A46514CA1E50D434F
:40464000691E8D410021ECB22DE74D4CA44534D0802424045B422143C6E7040014434ED0ED084C072C438025C9082D03294208D0C6082E4205D1D208410711430C009A4683
:404680003100620FC900E50011433D4C79E50600164300D175E5AE1AB0464545BF410E1A7F42F61B370200D4F4E5551BAA42B641411A7642891B9A4663E5010015006446CB
:4046C0005FE5002200257BE5002B3BD00300134315D0ED084B072B438025C9082D03294207D0C4082C4204D141070B002100D2081343C9005A0F1143DD00214C41E5204CA9
:404700003FE5002054E700260025D1E534000F00203CE7403C00202E2BD04027BE1BB1400D43691E8D4100212C43BCE6802100260903134C0025BBE50D43691E8D410021E9
:40474000EDB269E7010015000D4C1AE50100150017E51C000F00203CE7403C00202B0CD04027FB1A99400D43691E8D410021254352E70021D4E71D0092E50021F3E7C0468C
:40478000FF070000FFFF7FFFF0B556464D4644465F46F0B41D000E034C00CB0F87B0070092468146360B640D98466AD06D4B9C4235D08022430F12041343F6001E43C300C0
:4047C0009946694B00279C460023644402932B0368001B0BED0F51469B46400D009500D178E0604B98426CD05B46DA004B0F802109040B4313439B465346D9005A4B9C46C0
:40480000002360444246201A6A40924601901F430F2F00D9B0E05548BF00C0598746374300D088E0002399460233082700260293CDE74346B34649460093029B009A924657
:40484000022B00D0BFE1002153460122002689461A40444B002136030C0D2405360B2643434C1B0526401E437600D207760816434846310007B03CBC90469946A246AB4602
:40488000F0BD330003434FD0002E00D1BCE13000FDF748FB03000B3B1C2B00DDADE11D220100D31A08393A008F408E40DA40B9461643304B00279C46002360444442029398
:4048C00085E753465A4613432CD1002300219B46023397E70B4320D05B46002B00D19EE15846FDF71FFB03000B3B1C2B00DD8FE102005946083A91408B461D21CB1A5146C6
:40490000D9400B0059460B4351469B469140194B9C4660444042002374E7002300219B4601336FE703236DE70023994601330427002602934BE703230C27029347E701227D
:40494000D51A382D00DCB0E153461A4000210023002689467EE700238026994600223603004B77E7FF07000001FCFFFFC45F0000FFFF0F80F30300005E4500D972E100D1F2
:404980006DE1019B4D46013B01930023340002935B461E020B0E1E430B020393330C994633041B0C494620000093FDF7A9F8009B370043430600494620009846FDF726F98F
:4049C0002C0C09040C43A04509D9E419731EA74200D95CE1A04500D859E1023EE4194346E41A49462000FDF78BF80300009A80465343494620009B46FDF708F92A04090435
:404A0000120C0A4393450DD94346D219013B974200D93AE1934500D837E102235B429C46D219E0445B46D21A4346360433439B460399180C0B0C1D00059309045B46090C5F
:404A40000C001B041B0C4443049159436B4368431B190D0CEB189C4203D980246402A44660441C0C09041B04090C20185D18824200D2DEE000D1D7E0161A029B9C465D1B18
:404A8000AC459B415B42F61AB74200D106E149463000FDF735F8009B04004343494630009846FDF7B3F82E0C09040E43B04509D9F619631EB74200D9F3E0B04500D8F0E049
:404AC000023CF6194346F31A494618000293FDF717F8009B06004343494602989846FDF795F82D0409042D0C0D43A84509D9ED19731EAF4200D9D6E0A84500D8D3E0023E80
:404B0000ED192404210043463143049E059A3000ED1A0B040C0C1B0C58436643534354439A19030C9B189E4203D980225202944664441A0C00041B04000C14191B18A542AD
:404B400050D34DD001231943964A019B94466344002B00DCF3E64A0709D00F220A40042A05D00A1D8A42894149428B4411005A46D20108D55A468C4B1A4093468022D2005A
:404B80009446019B6344894A934200DD5BE65A46C908500708435602514601225B058146360B5B0D0A4055E680231B031E4211D05A461A420ED15E461E433603360B2A0012
:404BC00089467B4B46E6032B00D1E1E0012BBBD11A40BBE61E433603360B4246744B39E6002BB1D07D194A1EAF4252D91100A542A8D1039A9A42A5D1A6E703003E00283BE9
:404C00009E400023994654E6FDF78CF9203041E603005246283B9A400021934677E65046FDF780F920305EE6029B0026AB4200D323E7039E0299B44661448846B045B64182
:404C40005B467642F619B218013B0291974213D290424FD800D18EE0161A9B460DE7894500D28EE674084B46F60735005B081D434B46DB0702938BE69742EDD10399029CD8
:404C8000A142E5D93E1A9B46F7E69846CAE61E00A5E6AC423ED874D0110053E70121494252E71C000EE71E002BE71F2D3CDC20230A0058465B1B9840EA4099400243481E01
:404CC00081415E461143EE404B0709D00F230B40042B05D00B00191D99429B415B42F61833023CD55346012200211A40002601238946AFE502235B429C46039CE344A446FF
:404D0000029B63449846A045B6417642F6190293B218B1E603988A1E41008142B6417642F619AD19039161E71F225242D31A5A46DA401300202D29D040225846551BA840E4
:404D40000143481E814107200B4318400026002809D00F2200261A401900042ABBD10B0070077602360BDB0803439946012253461A4000236EE502998D42BBD89B4600267C
:404D80007BE603989842C5D3110032E70020D7E780265B4636031E433603360B009A8946034B57E5FF030000FFFFFFFEFE070000FF070000F0B55F4656464D464446F0B480
:404DC0001F035C00DB0F9A46194B0E034D00C90F8046360B6D0D8B4691463F0B640D9D4219D0134B9C421BD00123A54206D018003CBC90469946A246AB46F0BDBE42F6D10B
:404E0000C845F4D1D34510D0002DF0D1304303005A1E9341EBE7310001230143E7D1E0E73A430123002AE2D1DEE70023DFE7C046FF070000F0B55F46444656464D46F0B42F
:404E40001F033C0B2C4F0E034D00A3465C008446360B6D0DC90F9046640DDB0FBD422BD0254FBC422ED0002D0ED130430700814678427841002C17D15F463A4314D14B4647
:404E80000020002B0AD006E0002C02D15846024301D099421AD00123484218433CBC90469946A246AB46F0BD0028F2D058425841012240421043F1E737000743D0D0022003
:404EC0004042EBE75F461743CDD0F8E7A542E2DC05DB5E45DFD808D000205E45DED248424841012340421843D8E7C445D3D80020C445F4D3D2E7C046FF070000F0B55F4633
:404F00004D4644465646F0B41C03240BA4462F4C0F034D005E00C90F80463F0B6D0D8B469146760DDB0FA54220D0284CA64222D0002D12D1384344424441002E20D0002C28
:404F40000DD05C42634101245B421C4320003CBC90469946A246AB46F0BD002E17D05B4519D05B465C4201231C43EFE7390002240143EBD1D9E7614602241143E6D1D7E7B3
:404F800061460A43DBD100240028DFD0E9E761460A43E4D1E5E7B54203DD01225C421443D4E7B542CDDB6745DBD809D000246745CCD259464C426141012449420C43C5E7A8
:404FC000C845CED80024C845F3D3BFE7FF070000F0B55F4656464D464446F0B40D0399464E002B0B87B00700924680469B46760DCC0F002E69D06D4B9E4235D05B468022DF
:40500000DD001204430F13432B439B46C3009846674B00279C460023664401934A4615035000D20F53462D0B400D914600D176E05E4A90426CD080225B0F120413435C4A00
:40504000ED0094461D4353460022DB00604449463618701C6140029017430F2F00D9AFE05448BF00C759BF465B461F4300D088E000239B469846023308270193CEE749465A
:40508000022A6AD0032A00D109E2012A00D0BBE111400022002300259046CCB200212D030A0D12052D0B1543434A1B0515401D436D00E4076D0825434046290007B03CBCF7
:4050C00090469946A246AB46F0BD034352D05B46002B00D18AE15846FCF724FF03000B3B1C2B00DD7BE11D22D31A3A0001005D46DA4008398D4013008F402B439B46B84627
:405100002E4B00279C46002360444642019385E752462A432CD100250023022297E752462A4321D0002D00D154E12800FCF7FAFE03000B3B1C2B00DD46E11D21CB1A514628
:405140000200D9405346083A954093400D431B4A944660444042002279E7012400220C40124B0025904699E70025002301226EE703226CE700239B469846013304270193E2
:405180004CE703230C27019348E700238025984600242D03054B81E75D464346019A6FE75D4643462100019A6AE7C046FF07000001FCFFFF04600000FFFF0F80F3030000AA
:4051C0004246120C91461A0C9446424617044A461B041B0C5A43604690464A4642431000039262461C003F0C7A437C4342440192220C9246019A5244904506D982468020EF
:4052000040028046C24450460390100C049048462404240C1204121905922A0C2D042D0C68432C00824648467C4350438146200C8046574357444744BA4503D98020400274
:405240008046C144380C3F04B84648442404240C01900498A044404404905846000C814658460404200C8246070048465F434C464343604660436446834650464443380C5A
:405280008446E4186444A34203D980235B029C46E34448463F04230C3F0C2404E419574668436F4384464D46504655434243380C814662444A445B44944503D980204002C7
:4052C0008446654403983F04834604983F0C8446E344C345804140428246100484460198674484466744A344BC46A345A4419946D44464428742BF41D4458041E144A04611
:4053000099459B417F424042C8440743120CBA18A045A4415F423B0064422343D71843467D19DB0D6D021D435B465A02059B1A43531E9A415B46DB0D1A4343465B0213434B
:40534000EA0107D501225C0813402343EA07029E13436D08574AB218002A4BDD580709D00F201840042805D0181D98429B415B42ED180300E80104D54F4A15408022D20099
:40538000B2184E48824200DDE7E60124DB08680718436D02530580462D0B5B0D0C407DE6802259461203114208D0154206D115432D0398462D0B4C46414B6FE65D461543B6
:4053C0002D032D0B3E4B69E603005546283B9D400023BCE65046FCF7A5FD2030A8E60300283B9F400023BB46984689E6FCF79AFD203073E60124A61A382E07DD00220C403B
:4054000000230025904649E6029EA3E71F2E20DC20222C001800921BF040944093400443581E83411C43F540630709D00F232340042B05D023001C1D9C4292415242AD184B
:405440002B021FD5012400220C4001230025904624E61F202C004042821AD440202E1CD04022961BB5402B43581E83410720234318400025002809D00F2200251A401C00F1
:40548000042AD8D1230068076D022D0B0124DB08034398460C40002300E60025E3E780220124120315432D0398462D0B0C40044BF4E5C046FF030000FFFFFFFEFE07000076
:4054C000FF070000F0B557464E464546E0B40E001100F20F9246C500420F180337037400400A4E0F7F0A3043CF4E17435A00640D520DDB0FC900B24200D1E5E0012673407F
:40550000A61AB446534500D1AFE0002E00DC0DE1002A3AD103000B4300D0E4E06B0709D00F232B40042B05D02B1DAB42AD416D427F191D003B0200D488E0BB4B01349C42A2
:4055400000D110E13A00B94B51461A4001235007ED08520264050543120B640D0B400021280012030D0D120B64052D0515436208AF4CDB072C401443640064081C4321000A
:405580001CBC90469946A246F0BDA74B9C42C5D080231B0418436346382B00DDFDE01F2B00DD30E1624620239B1A02009A40664690460A009940F24046464B1E99413243F2
:4055C000114363460200DA40691A8D429B410D00BA1A5B42D71A3B0235D57A02530A98464346002B00D1C4E04046FCF79BFC0300083B1F2B00DDC5E020222900D21A4746C8
:40560000D1409F400A009D403A439C4200DDC0E01C1B631C1F2B00DDE4E0202114002800C91AD8408C408D400443DA40681E854117002543002471E7424663461A4300D102
:405640004CE2674645466B0700D069E7012351467807ED08FA080B40054373498C4238D012036405120B640D79E7002E00DC9AE0002A47D06C4A944200D14FE78022120460
:4056800010436246382A00DC08E10143481E81410022C9B24919D219A942BF410D007F42BF183A0200D442E15F4A0134944200D14EE101205D4A69083A4028400843D507B9
:4056C000054357089A4629E706000E4300D017E714E72900114300D1F9E1802109030A431203120B3BE701235B429846C4446346002B72D1691A8D429B413F1A5B42FF1A82
:405700000D0068E702000A4300D107E7012252429046C4446246002A00D0E6E06918A942B6413F187642F7190D00BAE7002E00D080E0621C5205520D012A00DCF9E06A1ADC
:4057400091464D45B6413A1A7642921B9046120200D499E04D1BA9428941C71B49427A1A90469A463CE752460123002513400022F5E62800FCF7D6FB20300300083B1F2BE5
:4057800000DC39E72A002838824000259C4200DC3EE7264FE41A1740C0E60143481E81410022C9B210E7002E00D0F1E0621C94465205520D012A00DCA0E01B4A944500D1BA
:4057C000C5E06918A94292413F185242D2194908D5070D4357086446A0E6134B9C4200D0D9E69BE611001F3CE1400C00202B00D180E04021CB1A9A4015436A1E9541002785
:40580000254300241FE763460200203BDA406346202B71D0402366469B1B98400143481E814111430022CFE6FF070000FFFF7FFFFFFF0F80002C48D0CA4CA24200D1A2E0AD
:405840007442A1468024240427434C46382C00DDDBE01F2C00DD44E14E462024A41B3E00A640A246B0464C462E00E640B4464646644626435446A5406C1EA54134002C43D0
:405880004D46EF400D1B28E04A4643464D461A4300D0A5E6002300240025DEE61F2A5ADC66462022921B060096409146B04662460E00D640424616434A4691404A1E914157
:4058C000020060463143C240E4E63C002C435AD0F443A146002C52D14D1BA9428941C71B49427F1A14009A4675E69E4A944200D0C7E613E600227FE700208FE7002C00D0BE
:40590000C8E03B002B4300D10FE103000B4300D104E66918A9429B413F185B42DF193B0200D41AE1904B0D001F406446F6E59A4689E63A002A43002C5CD1002A75D102007C
:405940000A4300D1CAE007000D009A46E6E564460022002581E662460600203AD6406246B046202A00D1B7E040226646921B904001434246481E8141114300228AE6794CB0
:40598000A24200D061E707000D0014009A46C5E5002C41D13C002C4378D0F443A146002C20D0704CA24271D04C46382C00DDB2E01F2C00DDBCE02026341BA2463C0056466F
:4059C000B4404E46A0462C00F440A446444666463443A4465446A54064466E1EB54125434C46E7406D188D4289413F184942CF19140056E6002A2FD102000A4300D184E0A6
:405A000007000D009A46574C88E53D436F1EBD41ECB200270D1B60E7524CA24236D0744280263604A1463743BEE702000A4300D174E56A1A90464545B6413A1A7642921BF2
:405A40009446120200D4F7E54D1BA9428941C71B49427F1A9A4661E502000A433AD0ED087C072C438025FA082D032A4208D0C7082F4205D145072C003A009A46C9080C431C
:405A8000670FD200E5001743364C47E507000D00140043E53A002A4343D002000A4319D0ED087C072C438025FA082D032A4207D0C6082E4204D147073C003200C9080C437F
:405AC000D700620FE50017439A46264C26E50022002544E5234C21E5002049E700230025BBE54C463E00203CE6404C46B446202C31D040244E46A61BB7403D436C1EA541DA
:405B000064462C4300270D1BE7E6802200231203144C0025A1E53D436F1EBD410027EDB260E707000D000F4CF8E407000D00F5E44E463C00203EF440A0464C46202C0ED0F7
:405B400040244E46A41BA7403D436F1EBD4144460027254346E70027CFE70D0073E50027F2E7C046FF070000FFFF7FFF70B50E4E0C031D0349005B00240B490D2D0B5B0DF3
:405B8000B14204D0084900208B4208D070BD04430120002CFAD1044900208B42F6D115432800451EA841F1E7FF0700000B0330B5134D1A0B4B005B0DC90F0024AB4211DDCF
:405BC000104CA34210DC8024640322430E4CE41A1F2C0CDD0D48C31ADA4013005C42002900D11C00200030BD094BCC18FAE7E040084CA44663449A4013000343EEE7C04630
:405C0000FE0300001D0400003304000013040000FFFFFF7FEDFBFFFF70B5002830D0C317C4185C40C50F2000FCF77CF9174B184A1B1AD21A1F2A18DD164AD21A9440002232
:405C400024035B05240B5B0D0021100024030A0D1205240B1443104A1B0514401C436400ED0764082C43210070BD210091400A000B21081AC4405B052403240B5B0DE3E716
:405C80000025002300240022DEE7C0461E0400003304000013040000FFFF0F8070B5051E28D0FCF73FF9154B154A1B1AD21A1F2A16DD2C00134A0025D21A94405A05240313
:405CC000240B520D002124030B0D240B1B0523430D4C1205234013435B002800590870BD0B212C00081AC440954024035A05240B520DE7E700220024E4E7C0461E04000059
:405D00003304000013040000FFFF0F8000000000256600001B5B31460000000000300F40000400400F40000438803E4058045F011F80838087803B023F0283018701CEC047
:405D4000E630000004320F4003330F4006410F40030405060708090A0B0C0E0F101112131415161718191B1C1D1E1F2021222325262728292A2B2E2F30313233343500007D
:405D800002020202010204050000024000010240000202400003024000040240000502400006024008000440080104400802044008030440080404400805044008060440C3
:405DC00000000440000104400002044000030440000404400005044000060440000000000200000004000000100000002000000004000000000000004C0200205002002098
:405E00000C0100204802002058020020DC5D0000E400002088020020780200207C02002094020020800200208C020020A802002040020020545E0000F45D0000F05D0000B0
:405E4000F5100000DD0E0000AD0D0000A10E0000CD100000040404080808081010101010101010104300494E4600696E66004E414E006E616E0030003031323334353637ED
:405E80003839414243444546003031323334353637383961626364656600496E66696E697479004E614E00504F534958002E0000000000000000F03F0000000000002440DF
:405EC00000000000000059400000000000408F40000000000088C34000000000006AF8400000000080842E4100000000D01263410000000084D797410000000065CDCD4161
:405F0000000000205FA00242000000E876483742000000A2941A6D42000040E59C30A2420000901EC4BCD64200003426F56B0C430080E03779C3414300A0D8855734764324
:405F400000C84E676DC1AB43003D9160E458E143408CB5781DAF154450EFE2D6E41A4B4492D54D06CFF08044F64AE1C7022DB544B49DD9794378EA44050000001900000061
:405F80007D000000000000000080E03779C34143176E05B5B5B89346F5F93FE9034F384D321D30F94877825A3CBF737FDD4F1575232D302B2000686C4C00656667454647F6
:405FC0000000000078490000464800004C4900003C4800004C490000564900004C4900003C4800004648000046480000564900003C4800003248000032480000324800003F
:40600000A84B0000C051000080500000805000007E50000098510000985100008A5100007E500000985100008A510000985100007E500000A0510000A0510000A051000025
:40604000A0530000F8B5C046F8BC08BC9E46704789020000A1040000F8B5C046F8BC08BC9E4670476102000078600000C0000020F00000000001000000000000B002002093
:40608000010000000000C05D80BB000030000000006CDC02F0000000040404000000FF0F0F00000008020440080204400802044008020440010000001E1E1E1E0100000042
:4060C00001000000020202020000000000000000000000000000000000000000000000000000000000000000645E00000000000000000000000000000000000000000000D5
:406100000000000000000000000000000000000000000000000000000000000000000000000000000000000010010020AD5E0000B55F0000B55F0000B55F0000B55F0000D3
:40614000B55F0000B55F0000B55F0000B55F0000B55F0000FFFFFFFFFFFFFFFFFFFFFFFFFFFF000000000000000000000000000000000000000000000000000000000000C9
:4061800000000000000000000000000000000000000000000000000000000000000000000000000000000000000000000000000000000000000000000000000000000000DF
:4061C000000000000000000000000000000000000000000000000000000000000000000000000000000000000000000000000000000000000000000000000000000000009F
:40620000000000000000000000000000000000000000000000000000000000000000000000000000000000000000000000000000000000000000000000000000000000005E
:40624000000000000000000000000000000000000000000000000000000000000000000000000000000000000000000000000000000000000000000000000000000000001E
:020000040003F7
:0200000490303A
:0200000087C0B7
:0200000490402A
:4000000000000000000000000000000000000000000000000000000000000000000000000000000000000000000000000000000000000000000000000000000000000000C0
:400040000000000000000000000000000000000000000000000000000000000000000000000000000000000000000000000000000000000000000000000000000000000080
:0200000490501A
:0C00000000021A1711AA00011A36996AB2
:0200000490600A
:0100000001FE
:00000001FF